{
  "_format": "hh-sol-artifact-1",
  "contractName": "Messanger",
  "sourceName": "contracts/Messanger.sol",
  "abi": [
    {
      "inputs": [
        {
          "internalType": "string",
          "name": "_name",
          "type": "string"
        },
        {
          "internalType": "address",
          "name": "_friendsKey",
          "type": "address"
        }
      ],
      "name": "addFriend",
      "outputs": [],
      "stateMutability": "nonpayable",
      "type": "function"
    },
    {
      "inputs": [
        {
          "internalType": "address",
          "name": "_pubkey",
          "type": "address"
        }
      ],
      "name": "getAllFriends",
      "outputs": [
        {
          "components": [
            {
              "internalType": "string",
              "name": "username",
              "type": "string"
            },
            {
              "internalType": "address",
              "name": "pubkey",
              "type": "address"
            }
          ],
          "internalType": "struct Messanger.Friends[]",
          "name": "",
          "type": "tuple[]"
        }
      ],
      "stateMutability": "view",
      "type": "function"
    },
    {
      "inputs": [],
      "name": "getAllUsers",
      "outputs": [
        {
          "components": [
            {
              "internalType": "string",
              "name": "name",
              "type": "string"
            },
            {
              "internalType": "address",
              "name": "accountAddress",
              "type": "address"
            }
          ],
          "internalType": "struct Messanger.allUser[]",
          "name": "",
          "type": "tuple[]"
        }
      ],
      "stateMutability": "view",
      "type": "function"
    },
    {
      "inputs": [
        {
          "internalType": "address",
          "name": "_pubkey",
          "type": "address"
        }
      ],
      "name": "getUsername",
      "outputs": [
        {
          "internalType": "string",
          "name": "",
          "type": "string"
        }
      ],
      "stateMutability": "view",
      "type": "function"
    },
    {
      "inputs": [
        {
          "internalType": "address",
          "name": "friend_key",
          "type": "address"
        }
      ],
      "name": "readMessage",
      "outputs": [
        {
          "components": [
            {
              "internalType": "string",
              "name": "message",
              "type": "string"
            },
            {
              "internalType": "uint256",
              "name": "timestamp",
              "type": "uint256"
            },
            {
              "internalType": "address",
              "name": "sender",
              "type": "address"
            }
          ],
          "internalType": "struct Messanger.Message[]",
          "name": "",
          "type": "tuple[]"
        }
      ],
      "stateMutability": "view",
      "type": "function"
    },
    {
      "inputs": [
        {
          "internalType": "string",
          "name": "_msg",
          "type": "string"
        },
        {
          "internalType": "address",
          "name": "_friendkey",
          "type": "address"
        }
      ],
      "name": "sendMessage",
      "outputs": [],
      "stateMutability": "nonpayable",
      "type": "function"
    },
    {
      "inputs": [
        {
          "internalType": "string",
          "name": "_name",
          "type": "string"
        }
      ],
      "name": "signUp",
      "outputs": [],
      "stateMutability": "nonpayable",
      "type": "function"
    }
  ],
  "bytecode": "0x608060405234801561001057600080fd5b50611ede806100206000396000f3fe608060405234801561001057600080fd5b506004361061007d5760003560e01c8063c48d6d5e1161005b578063c48d6d5e146100fe578063ce43c0321461011a578063daa7ddb21461014a578063e2842d79146101665761007d565b8063255e9c1114610082578063a99fa161146100b2578063adcfb4fc146100e2575b600080fd5b61009c60048036038101906100979190611145565b610184565b6040516100a9919061133c565b60405180910390f35b6100cc60048036038101906100c79190611145565b6102f7565b6040516100d9919061145d565b60405180910390f35b6100fc60048036038101906100f791906114e4565b6104c8565b005b61011860048036038101906101139190611531565b6106a6565b005b610134600480360381019061012f9190611145565b6108b3565b60405161014191906115db565b60405180910390f35b610164600480360381019061015f9190611531565b6109cf565b005b61016e610bd2565b60405161017b91906116fc565b60405180910390f35b606060006101923384610d19565b905060026000828152602001908152602001600020805480602002602001604051908101604052809291908181526020016000905b828210156102eb57838290600052602060002090600302016040518060600160405290816000820180546101fa9061174d565b80601f01602080910402602001604051908101604052809291908181526020018280546102269061174d565b80156102735780601f1061024857610100808354040283529160200191610273565b820191906000526020600020905b81548152906001019060200180831161025657829003601f168201915b50505050508152602001600182015481526020016002820160009054906101000a900473ffffffffffffffffffffffffffffffffffffffff1673ffffffffffffffffffffffffffffffffffffffff1673ffffffffffffffffffffffffffffffffffffffff1681525050815260200190600101906101c7565b50505050915050919050565b606061030282610db1565b610341576040517f08c379a0000000000000000000000000000000000000000000000000000000008152600401610338906117ca565b60405180910390fd5b600160003373ffffffffffffffffffffffffffffffffffffffff1673ffffffffffffffffffffffffffffffffffffffff168152602001908152602001600020600101805480602002602001604051908101604052809291908181526020016000905b828210156104bd57838290600052602060002090600202016040518060400160405290816000820180546103d69061174d565b80601f01602080910402602001604051908101604052809291908181526020018280546104029061174d565b801561044f5780601f106104245761010080835404028352916020019161044f565b820191906000526020600020905b81548152906001019060200180831161043257829003601f168201915b505050505081526020016001820160009054906101000a900473ffffffffffffffffffffffffffffffffffffffff1673ffffffffffffffffffffffffffffffffffffffff1673ffffffffffffffffffffffffffffffffffffffff1681525050815260200190600101906103a3565b505050509050919050565b6104d133610db1565b15610511576040517f08c379a000000000000000000000000000000000000000000000000000000000815260040161050890611836565b60405180910390fd5b60008282905011610557576040517f08c379a000000000000000000000000000000000000000000000000000000000815260040161054e906118a2565b60405180910390fd5b8181600160003373ffffffffffffffffffffffffffffffffffffffff1673ffffffffffffffffffffffffffffffffffffffff16815260200190815260200160002060000191826105a8929190611aa8565b506000604051806040016040528084848080601f016020809104026020016040519081016040528093929190818152602001838380828437600081840152601f19601f8201169050808301925050505050505081526020013373ffffffffffffffffffffffffffffffffffffffff16815250908060018154018082558091505060019003906000526020600020906002020160009091909190915060008201518160000190816106589190611b78565b5060208201518160010160006101000a81548173ffffffffffffffffffffffffffffffffffffffff021916908373ffffffffffffffffffffffffffffffffffffffff16021790555050505050565b6106af81610db1565b6106ee576040517f08c379a00000000000000000000000000000000000000000000000000000000081526004016106e590611c96565b60405180910390fd5b6106f733610db1565b610736576040517f08c379a000000000000000000000000000000000000000000000000000000000815260040161072d90611c96565b60405180910390fd5b6107403382610e0b565b61077f576040517f08c379a000000000000000000000000000000000000000000000000000000000815260040161077690611d02565b60405180910390fd5b600061078b3383610d19565b90506000604051806060016040528086868080601f016020809104026020016040519081016040528093929190818152602001838380828437600081840152601f19601f8201169050808301925050505050505081526020014281526020013373ffffffffffffffffffffffffffffffffffffffff1681525090506002600083815260200190815260200160002081908060018154018082558091505060019003906000526020600020906003020160009091909190915060008201518160000190816108589190611b78565b506020820151816001015560408201518160020160006101000a81548173ffffffffffffffffffffffffffffffffffffffff021916908373ffffffffffffffffffffffffffffffffffffffff16021790555050505050505050565b60606108be82610db1565b6108fd576040517f08c379a00000000000000000000000000000000000000000000000000000000081526004016108f4906117ca565b60405180910390fd5b600160003373ffffffffffffffffffffffffffffffffffffffff1673ffffffffffffffffffffffffffffffffffffffff168152602001908152602001600020600001805461094a9061174d565b80601f01602080910402602001604051908101604052809291908181526020018280546109769061174d565b80156109c35780601f10610998576101008083540402835291602001916109c3565b820191906000526020600020905b8154815290600101906020018083116109a657829003601f168201915b50505050509050919050565b6109d881610db1565b610a17576040517f08c379a0000000000000000000000000000000000000000000000000000000008152600401610a0e90611c96565b60405180910390fd5b610a2033610db1565b610a5f576040517f08c379a0000000000000000000000000000000000000000000000000000000008152600401610a5690611c96565b60405180910390fd5b610a698133610e0b565b15610aa9576040517f08c379a0000000000000000000000000000000000000000000000000000000008152600401610aa090611d6e565b60405180910390fd5b610af883838080601f016020809104026020016040519081016040528093929190818152602001838380828437600081840152601f19601f820116905080830192505050505050508233610fdd565b610bcd600160003373ffffffffffffffffffffffffffffffffffffffff1673ffffffffffffffffffffffffffffffffffffffff1681526020019081526020016000206000018054610b489061174d565b80601f0160208091040260200160405190810160405280929190818152602001828054610b749061174d565b8015610bc15780601f10610b9657610100808354040283529160200191610bc1565b820191906000526020600020905b815481529060010190602001808311610ba457829003601f168201915b50505050503383610fdd565b505050565b60606000805480602002602001604051908101604052809291908181526020016000905b82821015610d105783829060005260206000209060020201604051806040016040529081600082018054610c299061174d565b80601f0160208091040260200160405190810160405280929190818152602001828054610c559061174d565b8015610ca25780601f10610c7757610100808354040283529160200191610ca2565b820191906000526020600020905b815481529060010190602001808311610c8557829003601f168201915b505050505081526020016001820160009054906101000a900473ffffffffffffffffffffffffffffffffffffffff1673ffffffffffffffffffffffffffffffffffffffff1673ffffffffffffffffffffffffffffffffffffffff168152505081526020019060010190610bf6565b50505050905090565b60008173ffffffffffffffffffffffffffffffffffffffff168373ffffffffffffffffffffffffffffffffffffffff161115610d7f578282604051602001610d62929190611dd6565b604051602081830303815290604052805190602001209050610dab565b8183604051602001610d92929190611dd6565b6040516020818303038152906040528051906020012090505b92915050565b600080600160008473ffffffffffffffffffffffffffffffffffffffff1673ffffffffffffffffffffffffffffffffffffffff1681526020019081526020016000206000018054610e019061174d565b9050119050919050565b6000600160008373ffffffffffffffffffffffffffffffffffffffff1673ffffffffffffffffffffffffffffffffffffffff16815260200190815260200160002060010180549050600160008573ffffffffffffffffffffffffffffffffffffffff1673ffffffffffffffffffffffffffffffffffffffff168152602001908152602001600020600101805490501115610eac576000839050829350809250505b60005b600160008573ffffffffffffffffffffffffffffffffffffffff1673ffffffffffffffffffffffffffffffffffffffff16815260200190815260200160002060010180549050811015610fd1578273ffffffffffffffffffffffffffffffffffffffff16600160008673ffffffffffffffffffffffffffffffffffffffff1673ffffffffffffffffffffffffffffffffffffffff1681526020019081526020016000206001018281548110610f6757610f66611e02565b5b906000526020600020906002020160010160009054906101000a900473ffffffffffffffffffffffffffffffffffffffff1673ffffffffffffffffffffffffffffffffffffffff1603610fbe576001915050610fd7565b8080610fc990611e60565b915050610eaf565b50600090505b92915050565b600060405180604001604052808581526020018473ffffffffffffffffffffffffffffffffffffffff168152509050600160008373ffffffffffffffffffffffffffffffffffffffff1673ffffffffffffffffffffffffffffffffffffffff168152602001908152602001600020600101819080600181540180825580915050600190039060005260206000209060020201600090919091909150600082015181600001908161108d9190611b78565b5060208201518160010160006101000a81548173ffffffffffffffffffffffffffffffffffffffff021916908373ffffffffffffffffffffffffffffffffffffffff160217905550505050505050565b600080fd5b600080fd5b600073ffffffffffffffffffffffffffffffffffffffff82169050919050565b6000611112826110e7565b9050919050565b61112281611107565b811461112d57600080fd5b50565b60008135905061113f81611119565b92915050565b60006020828403121561115b5761115a6110dd565b5b600061116984828501611130565b91505092915050565b600081519050919050565b600082825260208201905092915050565b6000819050602082019050919050565b600081519050919050565b600082825260208201905092915050565b60005b838110156111d85780820151818401526020810190506111bd565b60008484015250505050565b6000601f19601f8301169050919050565b60006112008261119e565b61120a81856111a9565b935061121a8185602086016111ba565b611223816111e4565b840191505092915050565b6000819050919050565b6112418161122e565b82525050565b61125081611107565b82525050565b6000606083016000830151848203600086015261127382826111f5565b91505060208301516112886020860182611238565b50604083015161129b6040860182611247565b508091505092915050565b60006112b28383611256565b905092915050565b6000602082019050919050565b60006112d282611172565b6112dc818561117d565b9350836020820285016112ee8561118e565b8060005b8581101561132a578484038952815161130b85826112a6565b9450611316836112ba565b925060208a019950506001810190506112f2565b50829750879550505050505092915050565b6000602082019050818103600083015261135681846112c7565b905092915050565b600081519050919050565b600082825260208201905092915050565b6000819050602082019050919050565b600060408301600083015184820360008601526113a782826111f5565b91505060208301516113bc6020860182611247565b508091505092915050565b60006113d3838361138a565b905092915050565b6000602082019050919050565b60006113f38261135e565b6113fd8185611369565b93508360208202850161140f8561137a565b8060005b8581101561144b578484038952815161142c85826113c7565b9450611437836113db565b925060208a01995050600181019050611413565b50829750879550505050505092915050565b6000602082019050818103600083015261147781846113e8565b905092915050565b600080fd5b600080fd5b600080fd5b60008083601f8401126114a4576114a361147f565b5b8235905067ffffffffffffffff8111156114c1576114c0611484565b5b6020830191508360018202830111156114dd576114dc611489565b5b9250929050565b600080602083850312156114fb576114fa6110dd565b5b600083013567ffffffffffffffff811115611519576115186110e2565b5b6115258582860161148e565b92509250509250929050565b60008060006040848603121561154a576115496110dd565b5b600084013567ffffffffffffffff811115611568576115676110e2565b5b6115748682870161148e565b9350935050602061158786828701611130565b9150509250925092565b600082825260208201905092915050565b60006115ad8261119e565b6115b78185611591565b93506115c78185602086016111ba565b6115d0816111e4565b840191505092915050565b600060208201905081810360008301526115f581846115a2565b905092915050565b600081519050919050565b600082825260208201905092915050565b6000819050602082019050919050565b6000604083016000830151848203600086015261164682826111f5565b915050602083015161165b6020860182611247565b508091505092915050565b60006116728383611629565b905092915050565b6000602082019050919050565b6000611692826115fd565b61169c8185611608565b9350836020820285016116ae85611619565b8060005b858110156116ea57848403895281516116cb8582611666565b94506116d68361167a565b925060208a019950506001810190506116b2565b50829750879550505050505092915050565b600060208201905081810360008301526117168184611687565b905092915050565b7f4e487b7100000000000000000000000000000000000000000000000000000000600052602260045260246000fd5b6000600282049050600182168061176557607f821691505b6020821081036117785761177761171e565b5b50919050565b7f55736572206973206e6f74207265676973746572656400000000000000000000600082015250565b60006117b4601683611591565b91506117bf8261177e565b602082019050919050565b600060208201905081810360008301526117e3816117a7565b9050919050565b7f5573657220416c72656164792045786973740000000000000000000000000000600082015250565b6000611820601283611591565b915061182b826117ea565b602082019050919050565b6000602082019050818103600083015261184f81611813565b9050919050565b7f6e616d652063616e277420626520656d70747900000000000000000000000000600082015250565b600061188c601383611591565b915061189782611856565b602082019050919050565b600060208201905081810360008301526118bb8161187f565b9050919050565b600082905092915050565b7f4e487b7100000000000000000000000000000000000000000000000000000000600052604160045260246000fd5b60008190508160005260206000209050919050565b60006020601f8301049050919050565b600082821b905092915050565b60006008830261195e7fffffffffffffffffffffffffffffffffffffffffffffffffffffffffffffffff82611921565b6119688683611921565b95508019841693508086168417925050509392505050565b6000819050919050565b60006119a56119a061199b8461122e565b611980565b61122e565b9050919050565b6000819050919050565b6119bf8361198a565b6119d36119cb826119ac565b84845461192e565b825550505050565b600090565b6119e86119db565b6119f38184846119b6565b505050565b5b81811015611a1757611a0c6000826119e0565b6001810190506119f9565b5050565b601f821115611a5c57611a2d816118fc565b611a3684611911565b81016020851015611a45578190505b611a59611a5185611911565b8301826119f8565b50505b505050565b600082821c905092915050565b6000611a7f60001984600802611a61565b1980831691505092915050565b6000611a988383611a6e565b9150826002028217905092915050565b611ab283836118c2565b67ffffffffffffffff811115611acb57611aca6118cd565b5b611ad5825461174d565b611ae0828285611a1b565b6000601f831160018114611b0f5760008415611afd578287013590505b611b078582611a8c565b865550611b6f565b601f198416611b1d866118fc565b60005b82811015611b4557848901358255600182019150602085019450602081019050611b20565b86831015611b625784890135611b5e601f891682611a6e565b8355505b6001600288020188555050505b50505050505050565b611b818261119e565b67ffffffffffffffff811115611b9a57611b996118cd565b5b611ba4825461174d565b611baf828285611a1b565b600060209050601f831160018114611be25760008415611bd0578287015190505b611bda8582611a8c565b865550611c42565b601f198416611bf0866118fc565b60005b82811015611c1857848901518255600182019150602085019450602081019050611bf3565b86831015611c355784890151611c31601f891682611a6e565b8355505b6001600288020188555050505b505050505050565b7f5573657220646f6573206e6f7420657869737400000000000000000000000000600082015250565b6000611c80601383611591565b9150611c8b82611c4a565b602082019050919050565b60006020820190508181036000830152611caf81611c73565b9050919050565b7f55736572206973206e6f7420796f757220667269656e64000000000000000000600082015250565b6000611cec601783611591565b9150611cf782611cb6565b602082019050919050565b60006020820190508181036000830152611d1b81611cdf565b9050919050565b7f5573657220697320616c726561647920796f757220667269656e640000000000600082015250565b6000611d58601b83611591565b9150611d6382611d22565b602082019050919050565b60006020820190508181036000830152611d8781611d4b565b9050919050565b60008160601b9050919050565b6000611da682611d8e565b9050919050565b6000611db882611d9b565b9050919050565b611dd0611dcb82611107565b611dad565b82525050565b6000611de28285611dbf565b601482019150611df28284611dbf565b6014820191508190509392505050565b7f4e487b7100000000000000000000000000000000000000000000000000000000600052603260045260246000fd5b7f4e487b7100000000000000000000000000000000000000000000000000000000600052601160045260246000fd5b6000611e6b8261122e565b91507fffffffffffffffffffffffffffffffffffffffffffffffffffffffffffffffff8203611e9d57611e9c611e31565b5b60018201905091905056fea264697066735822122020f52b5ae0681d843270b90e3e5a25b8019693e14d5e6895dc5d650d3e0b3ec564736f6c63430008110033",
  "linkReferences": {},
  "deployedLinkReferences": {}
}